:100000000C94B2030C94DA030C94DA030C94DA0324
:100010000C94DA030C94DA030C94DA030C94DA03EC
:100020000C94DA030C94DA030C94DA030C94DA03DC
:100030000C94DA030C94DA030C94DA030C94DA03CC
:100040000C94C5270C94DA030C9435280C940F28D3
:100050000C94DA030C94DA030C94DA030C94DA03AC
:100060000C9467280C94DA03AED580A83FD30040E7
:100070008D142002A1C8DA12817FD9F1DB40A4A639
:10008000AF000005072061000000000000005F00D5
:10009000000007000700147F147F14242A7F2A120F
:1000A00023130864623649552250000503000000FE
:1000B0001C2241000041221C00082A1C2A080808B2
:1000C0003E0808005030000008080808080060607A
:1000D000000020100804023E5149453E00427F4086
:1000E0000042615149462141454B311814127F109D
:1000F00027454545393C4A494930017109050336D0
:1001000049494936064949291E003636000000563D
:10011000360000000814224114141414144122144F
:1001200008000201510906324979413E7E11111140
:100130007E7F494949363E414141227F4141221C4F
:100140007F494949417F090901013E414151327FBF
:100150000808087F00417F41002040413F017F089F
:100160001422417F404040407F0204027F7F040808
:10017000107F3E4141413E7F090909063E41512120
:100180005E7F09192946464949493101017F01012C
:100190003F4040403F1F2040201F7F2018207F63AA
:1001A00014081463030478040361514945430000B3
:1001B0007F4141020408102041417F0000040201F8
:1001C00002044040404040000102040020545454C6
:1001D000787F484444383844444420384444487F75
:1001E0003854545418087E090102081454543C7FB2
:1001F0000804047800447D40002040443D00007F16
:1002000010284400417F40007C041804787C0804D6
:10021000047838444444387C14141408081414181E
:100220007C7C080404084854545420043F44402073
:100230003C4040207C1C2040201C3C4030403C4442
:10024000281028440C5050503C4464544C4400083E
:1002500036410000007F0000004136080008082AEF
:100260001C08081C2A080800060909060000060EDA
:1002700020600000000000000000000000000000FE
:1002800000FC00000000000D000000001E001E0029
:100290000000000000000020FC20FC2000010F01F5
:1002A0000F01304888FC88300608081F080718240A
:1002B000A478100C0C020709090600B8C444388061
:1002C0000708080506090000001E000000000000E5
:1002D00000000000E01804020000030C10200002DF
:1002E0000418E0000020100C0300002040F0402023
:1002F000000201070102008080F0808000000007FA
:1003000000000000000000000000241C000000802D
:1003100080808080000000000000000000000000DD
:100320000000081C0800000000E01806300C030064
:100330000000F008040408F0030408080403001097
:1003400008FC00000008080F080818040404C4385A
:10035000080C0A09080804044464548C06080808B8
:10036000080700C03008FC00030202020F027C24D0
:10037000242424C4060808080807F088444444805C
:10038000070808080807040404C4340C000C030020
:10039000000018A44444A418070808080807788433
:1003A000848444F806080808040300002070200034
:1003B0000000040E04000000606000000000120E47
:1003C00000000080402010080000010204082020E6
:1003D000202020200101010101010008102040809F
:1003E000000804020100180404C424180000000DD1
:1003F0000000F008E41414F80304090A0A0BF0885A
:10040000848488F00F000000000FFC444444A810CE
:100410000F0808080403F80404040418070808086F
:100420000806FC04040408F00F0808080403FC4450
:10043000444404040F0808080808FC444444040425
:100440000F0000000000F8040484849807080808DE
:10045000040FFC40404040FC0F000000000F00046F
:1004600004FC04040008080F080800000004FC0451
:10047000060808080700FC40A01008040F0000014F
:10048000020CFC00000000000F0808080808FC1817
:10049000606018FC0F000000000FFC30408000FC82
:1004A0000F000000030FF804040404F8070808080C
:1004B0000807FC84848484780F0000000000F8049E
:1004C000040404F80709090A1C27FC84848484783E
:1004D0000F000001020C3844448484180608080800
:1004E0000807040404FC04040000000F0000FC00E2
:1004F000000000FC0708080808073CC00000C03CDA
:1005000000010E0E010000FC000000FC00070807BF
:1005100008070C30C0C0300C0C030000030C001C9A
:100520006080601C0000000F000004048464140C50
:100530000C0B080808080000FE02020200003F2021
:1005400020200618E0000000000000030C3000022C
:100550000202FE00002020203F00080402020408DE
:10056000000000000000000000000000202020200B
:1005700020200000020408000000000000004020CD
:10058000202020C006090909090FFC40202020C0B6
:100590000F0408080807C02020202040070808088A
:1005A0000804C020202040FC07080808040FC020D1
:1005B000202020C00709090909054040F8444408E3
:1005C00000000F000000C0202020C02019262A2A89
:1005D0002910FC40202020C00F000000000F000068
:1005E00020EC00000008080F08080000000020ECC4
:1005F00000182020201FFC00804020000F01010275
:100600000408000004FC00000008080F080800E0CF
:1006100020C020C0000F0007000FE040202020C0B5
:100620000F000000000FC020202020C0070808088D
:100630000807E040202020C03F0408080807C02029
:10064000202040E007080808043FE040202020C0A8
:100650000F000000000040A02020204004080909ED
:100660000A042020FC202000000007080804E00005
:10067000000000E007080808040F00E0000000E0A8
:100680000000030C030000E0008000E00007080702
:1006900008076080000080600C020101020CE0008D
:1006A000000000E013242424221F202020A060202A
:1006B000080C0B0808080000807C02020000001FE4
:1006C0002020000000FE00000000003F00000002AB
:1006D000027C80000020201F00000C020408100C87
:1006E000000000000000FEFEFEFEFEFE3F3F3F3F1A
:1006F0003F3F00030C0F30333C3FC0C3CCCFF0F37F
:10070000FCFF680019804000000000002400270062
:100710002A0000000000250028002B000000000037
:100720002300260029000404040404040404020233
:100730000202020203030303030301020408102060
:10074000408001020408102001020408102000006B
:100750000008000201000003040700000000000080
:100760000000862911241FBECFEFD8E0DEBFCDBF29
:1007700024E0ACE5B2E001C01D92AF38B207E1F76A
:1007800012E0A0E0B1E0EAE2FCE602C005900D92C2
:10079000AC35B107D9F713E0C2EBD3E004C0219721
:1007A000FE010E94D933C13BD107C9F70E941A2A22
:1007B0000C9413360C9400008091C8029091C902E9
:1007C000891B990B08959093850480938404FC0100
:1007D00024913196E491F22F319719F410927F040D
:1007E000089581E080937F0408952F923F924F9265
:1007F0005F926F927F928F929F92AF92BF92CF92B1
:10080000DF92EF92FF920F931F93CF93DF93CDB7B9
:10081000DEB7AA970FB6F894DEBF0FBECDBF0D8727
:100820001D8B298F3A8F4B8F5C8F6F8F7BA3FE8E32
:10083000ED8EE0915404F0915504892B21F0E09164
:100840005604F0915704FF27EE0FFF1FEE0FFF1F16
:10085000E85AFB4F608171818281938124E630E008
:1008600040E050E00E949132522E632E742E852E6D
:10087000962E7A8B898B492E86017501110FEE0811
:10088000FE2C87019501A6016E2D7E2D8E2D9E2DAD
:100890000FE10E945C33A12CEAECBE2EFAE9CF2EC8
:1008A000ABE3DA2EE12CF12C00E010E00E94BE3226
:1008B000A52CB62CC72CD82CE92CFA880989142D24
:1008C0000E942A320FE10E94773329833A834B83B7
:1008D0005C836D837E838F83988729813A814B81E6
:1008E0005C81550F220B322FA90129873A874B874C
:1008F0005C87252D362D472D582D692D7F2D898913
:10090000942DA980BA80CB80DC80E984FE2C0E2D4A
:100910001E2D0E94923329833987498B5A8B6B8B0A
:100920007C8B1C016D847D88898C9A8C3C8D3D8BE1
:100930004F8C5BA09301A4016B8D7D89C2012115B1
:1009400034404B46544F644171058105910569F06F
:1009500060F0612C24E0722E3BE6832E44EF942E4F
:10096000B4E1BB8F1D8A412C512CEB8DEF8F93018D
:10097000A4016E2F7D89C201211538454744584F87
:100980006D4071058105910560F4612C08E5702EBC
:1009900087E4882E98EF992E2DE02F8F1D8A412C09
:1009A000512CA980B984C988DA88EB88FC88810138
:1009B0009301A4016F8D7D89C2010E94EF32298FBE
:1009C0003A8F4B8F5C8F2D873E874F87588B8D8555
:1009D0009E85AF85B8891FE0A12E0F97A105B105AF
:1009E00058F02D853E854F8558892B3531054105B9
:1009F0005105B8F0BAE5AB2EB12CC12CD12CE12CAD
:100A0000F12C00E010E02981398549895A896B89E8
:100A10007C89C1010E942A3239014A016F8F7D8B86
:100A20002C01A980B984C988DA88EB88FC88810107
:100A30009301A4016F8D7D89C2010E94ED32E0E433
:100A4000AE2EF2E4BF2EAFE0CA2ED12CE12CF12C59
:100A500000E010E00E942A32A980B984C988DA88AF
:100A6000EB88FC8881010E94EF3249014CA35BA313
:100A7000C901DA0121E030E040E050E00097A10533
:100A8000B10521F020E432E44FE050E02D8B3E8BA5
:100A90004F8B588FBC01CD0127E0660F771F881F51
:100AA000991F2A95D1F72D893E894F89588D0E942B
:100AB000E93129013A016F8F78A389A39AA3A9800C
:100AC000B984C988DA88EB88FC88810194014CA13B
:100AD0005BA160E070E080E090E00E942A322BA3EE
:100AE0003CA34DA35EA36FA378A789A79AA78D8582
:100AF0009E85AF85B88937E0880F991FAA1FBB1F55
:100B00003A95D1F79250A109B109840D951DA61D02
:100B1000B71DED8DFE8D80839183A283B3832F8DCE
:100B200038A149A15AA124833583468357832D894F
:100B30003E894F89588D2087318742875387298D79
:100B40003A8D4B8D5C8D60E070E080E090E00E941B
:100B50002A3229013A014B01898799838D899E891F
:100B6000AF89B88D5C016D01E12CF12C00E010E043
:100B70002BA13CA14DA15EA16FA178A589A59AA545
:100B80000E94EF3259016A017B018C019201A3019D
:100B9000B401898599810E949233AA960FB6F89480
:100BA000DEBF0FBECDBFDF91CF911F910F91FF90A0
:100BB000EF90DF90CF90BF90AF909F908F907F90FD
:100BC0006F905F904F903F902F9008952F923F929B
:100BD0004F925F926F927F928F929F92AF92BF924D
:100BE000CF92DF92EF92FF920F931F93CF93DF93F9
:100BF000CDB7DEB765970FB6F894DEBF0FBECDBF99
:100C00002D833E834F83588769877A878B879C879C
:100C1000A982BF86C88AD98AEA8AFB8A0C8B1D8B77
:100C20009E868D86211506ED300701E140070EE70F
:100C3000500703E0600771058105910511F008F088
:100C400009C12F37304F4A4F524061057105810568
:100C5000910509F008F469C19501A601B7018C89D5
:100C60009D89A0E00E94B93309F00DC1AD80BE801E
:100C7000CF80D884E984FA840B851C8520E033E298
:100C800045E75EEE64E170E080E090E00E94EF32C4
:100C9000C901DA01A901BD0120FF99C04F5F5F4F73
:100CA0006F4F7F4F49835A836B837C834F3F51053E
:100CB0006105710540F08EEF90E0A0E0B0E089831F
:100CC0009A83AB83BC83E980FA800B811C81A801E5
:100CD0009701AD80BE80CF80D884E984FA840B85EB
:100CE0001C8560E070E080E090E00E942A322901DB
:100CF0003A014B011C01211504E030070BE64007C7
:100D000004EF500704E1600771058105910509F0C2
:100D100008F47DC089819A81AB81BC810297A109C9
:100D2000B10989839A83AB83BC831C012D010B8598
:100D30009101A20160E070E080E090E00E942A3220
:100D400029013A014B011C0189819A81AB81BC8147
:100D50009927AA27BB27ED85FE8580839183A283EF
:100D6000B38314821582168217821086118612862A
:100D700013869201A301B401C10165960FB6F894E0
:100D8000DEBF0FBECDBFDF91CF911F910F91FF90BE
:100D9000EF90DF90CF90BF90AF909F908F907F901B
:100DA0006F905F904F903F902F90089545E050E0F6
:100DB00060E070E01D8286ED8E8391E19F83AEE757
:100DC000A887B3E0B9871A861B861C8667CF05976C
:100DD000A105B10509F066CF16E0E12EF12C00E087
:100DE00010E0E982FA820B831C836DCF46E057E066
:100DF00060E070E0E0E8ED83F0EFFE830AEF0F8340
:100E000012E0188719861A861B861C864BCF2F3F47
:100E100037454744584F6D4071058105910511F0E4
:100E200008F092CF89819A81AB81BC810296A11D85
:100E3000B11D89839A83AB83BC831C012D01AD80D6
:100E4000BE80CF80D884E984FA840B851C8570CF5E
:100E5000412C63C029813F85488959896A897B89EA
:100E60008C899D89A0E00E94B93309F49FCF1D822F
:100E7000B6EDBE83E1E1EF83FEE7F88703E0098783
:100E80001A861B861C86AD80BE80CF80D884E984FC
:100E9000FA840B851C8529813F85488959896A898F
:100EA0007B898C899D890E94ED3229013A014B0191
:100EB0001C01A0E00E94B93359F629813F85488979
:100EC00059896A897B898C899D890E94EF32022F1A
:100ED000132F242F352FD901C8010697A109B10975
:100EE000893F9105A105B10508F043CF10E030E03E
:100EF00020E0AD85BE850D931D932D933C931397F4
:100F0000FD01148215821682178218961D921D9279
:100F10001D921C921B9744244394512C612C712CDC
:100F2000812C912C212C312C24CF29813F8548897B
:100F300059896A897B898C899D89A0E00E94B9338F
:100F400009F454CF10E81D8380EF8E839AEF9F83BE
:100F5000A2E0A887198694CFDF92EF92FF920F93B9
:100F60001F93CF93DF93FC01E080F1800281138116
:100F7000D481C581B681D7809701A8016D2F7C2FC0
:100F80008B2F9D2D285938424C4151096109710917
:100F900081099109273938424C4151056105710594
:100FA0008105910509F0D0F49701A8016D2F7C2FE0
:100FB0008B2F9D2D07E00E945C3320833183428379
:100FC0005383648375838683978387E0DF91CF9112
:100FD0001F910F91FF90EF90DF9008959701A80166
:100FE0006D2F7C2F8B2F9D2D205331454843510968
:100FF00061097109810991092F3231454843510531
:10100000610571058105910509F098F49701A80122
:101010006D2F7C2F8B2F9D2D06E00E945C3320834B
:10102000318342835383648375838683978386E009
:10103000CDCF9701A8016D2F7C2F8B2F9D2D205692
:10104000324A4047510961097109810991092F35D7
:10105000324A40475105610571058105910509F046
:1010600098F49701A8016D2F7C2F8B2F9D2D05E003
:101070000E945C332083318342835383648375836E
:101080008683978385E0A2CF9701A8016D2F7C2FDF
:101090008B2F9D2D205C3444414E5109610971090B
:1010A000810991092F3B3444414E51056105710579
:1010B0008105910509F098F49701A8016D2F7C2F07
:1010C0008B2F9D2D04E00E945C332083318342836B
:1010D0005383648375838683978384E077CF9701F6
:1010E000A8016D2F7C2F8B2F9D2D20583948424C05
:1010F000514061097109810991092F373948424CE2
:101100005140610571058105910509F098F4970139
:10111000A8016D2F7C2F8B2F9D2D03E00E945C3347
:1011200020833183428353836483758386839783CB
:1011300083E04CCF9701A8016D2F7C2F8B2F9D2D25
:1011400033514548534061097109810991092F3F85
:10115000324145485340610571058105910509F00B
:1011600098F49701A8016D2F7C2F8B2F9D2D02E005
:101170000E945C332083318342835383648375836D
:101180008683978382E022CF9701A8016D2F7C2F61
:101190008B2F9D2D36524A405740610971098109B4
:1011A00091092F3F35424A4057406105710581053D
:1011B000910509F098F49701A8016D2F7C2F8B2FD2
:1011C0009D2D01E00E945C33208331834283538351
:1011D000648375838683978381E0F8CE80E0F6CEC2
:1011E0002F923F924F925F926F927F928F929F9237
:1011F000AF92BF92CF92DF92EF92FF920F931F9325
:10120000CF93DF93CDB7DEB76C970FB6F894DEBF00
:101210000FBECDBF322E3D87242E5E872B013C01B1
:10122000A982BF86C88AD98AEA8AFB8A0C8B1D8B61
:10123000988E8F8A211501EC30070AE140070DE3F3
:10124000500705E0600771058105910509F0A0F5DB
:101250002F3710EF31071AEF410712E051076105F0
:1012600071058105910509F008F4B4C12F3F354D92
:1012700041415E47634071058105910509F008F41D
:101280008FC029813F85488959896A897B898C89E2
:101290009D89A0E0992493940E94B93309F08EC0EF
:1012A00011E01E8B94E0892E912CA12CB12C898603
:1012B0009A86AB86BC862FC0312CB1ECBD872AE163
:1012C000222EEDE3EE8735E0432E512C612C712C5C
:1012D000D8CFA32CBD84C22CDE847201830120E010
:1012E00034E04BE654EF64E170E080E090E00E946F
:1012F000EF32122FB32FF42FE52FA7E00E94B9335E
:1013000021F416E0B0E0F0E0E0E0CF011987BA8701
:101310009B87EC871E8A89849A84AB84BC84A50150
:10132000940160E070E0CB01A32CBD84C22CDE846C
:101330007201830129833A834B835C836D837E83AF
:101340008F83988760E070E080E090E00E942A320E
:1013500029833F87488B598B6A8B7B8B8C8B9D8B2A
:101360000E89C12CD12C7601C39440E050E0BA0123
:10137000013009F0A9C0AF89B88D1D921D921D9250
:101380001C921397FD01148215821682178281E048
:1013900090E0A0E0B0E080879187A287B387DEC0AD
:1013A00029813F85488959896A897B898C899D89EA
:1013B000A0E00E94B93309F48CCF912CA32CBD84FA
:1013C000C22CDE847201830129813F8548895989B5
:1013D0006A897B898C899D890E94EF3229873A87A7
:1013E0004B875C8729853A854B855C8506E0A02E76
:1013F000B12C263031054105510568F089859A8563
:10140000AB85BC8589309740A105B105D0F0B8E027
:10141000AB2E17E0B12EC12CD12CE12CF12C00E029
:1014200010E029813F85488959896A897B898C899F
:101430009D890E94EF32322E3D87242E5E872B013C
:101440003C01A32CBD84C22CDE847201830129815E
:101450003F85488959896A897B898C899D890E9441
:10146000ED32E0E4AE2EF2E4BF2EAFE0CA2ED12C76
:10147000E12CF12C00E010E00E942A32A32CBD8464
:10148000C22CDE84720183010E94EF32A32FF42F5D
:10149000E52F422F5A2F6F2F7E2FA0E4CA2EA2E4F1
:1014A000DA2EAFE0EA2EF12C4115510561057105E8
:1014B00021F4C12CD12C7601C394AA24A3949A14AC
:1014C00009F46DC001E00E8BCB01BA0117E0660F85
:1014D000771F881F991F1A95D1F7A70196010E94BF
:1014E000E931298F3A8F4B8F5C8F89849A84AB8442
:1014F000BC8407E0880C991CAA1CBB1C0A95D1F778
:101500009501840112502109310948015901298DA1
:101510003A8D4B8D5C8D280D391D4A1D5B1DAF89A1
:10152000B88D2D933D934D935C931397FD01648388
:101530007583868397831896CD92DD92ED92FC9207
:101540001B978E88882051F039829D849F86288A37
:10155000AE84A98A4A8A5B8A6C8A7D8A29813F8502
:10156000488959896A897B898C899D896C960FB6CF
:10157000F894DEBF0FBECDBFDF91CF911F910F91C9
:10158000FF90EF90DF90CF90BF90AF909F908F90A3
:101590007F906F905F904F903F902F900895AF890C
:1015A000B88D1D921D921D921C921397FD011482FD
:1015B00015821682178281E090E0A0E0B0E080877B
:1015C0009187A287B3873982FD85FF87288A8E8419
:1015D000898AC0CF29813F85488959896A897B8951
:1015E0008C899D89A0E0E0E83E2EF0EFFD87FAEFC0
:1015F0002F2E02E00E87412C512C612C712C0E9461
:10160000B93309F0DACE18E0B7E07DCEDF92EF9281
:10161000FF920F931F93CF93DF93FC01E080F18043
:1016200002811381D481C581B681D7809701A80139
:101630006D2F7C2F8B2F9D2D20583A41464051090C
:1016400061097109810991092F373A4146405105D5
:10165000610571058105910509F0D0F49701A80194
:101660006D2F7C2F8B2F9D2D07E00E945C332083F4
:10167000318342835383648375838683978387E0B2
:10168000DF91CF911F910F91FF90EF90DF90089520
:101690009701A8016D2F7C2F8B2F9D2D35534C402A
:1016A000510961097109810991092F3F34434C4067
:1016B0005105610571058105910509F098F49701BF
:1016C000A8016D2F7C2F8B2F9D2D06E00E945C338F
:1016D0002083318342835383648375838683978316
:1016E00086E0CECF9701A8016D2F7C2F8B2F9D2DEB
:1016F0003A564841510961097109810991092F3F01
:10170000394648415105610571058105910509F08A
:1017100098F49701A8016D2F7C2F8B2F9D2D05E04C
:101720000E945C33208331834283538364837583B7
:101730008683978385E0A4CF9701A8016D2F7C2F26
:101740008B2F9D2D345D4043510961097109810939
:1017500091092F3F334D40435105610571058105C6
:10176000910509F098F49701A8016D2F7C2F8B2F1C
:101770009D2D04E00E945C33208331834283538398
:10178000648375838683978384E07ACF9701A80169
:101790006D2F7C2F8B2F9D2D385A414651096109A1
:1017A0007109810991092F3F374A41465105610569
:1017B00071058105910509F098F49701A8016D2F35
:1017C0007C2F8B2F9D2D03E00E945C33208331837F
:1017D00042835383648375838683978383E050CFEA
:1017E0009701A8016D2F7C2F8B2F9D2D3055434CD9
:1017F000510961097109810991092F3F3F44434C07
:101800005105610571058105910509F098F497016D
:10181000A8016D2F7C2F8B2F9D2D02E00E945C3341
:1018200020833183428353836483758386839783C4
:1018300082E026CF9701A8016D2F7C2F8B2F9D2D45
:10184000305A4648514061097109810991092F3F79
:101850003F4946485140610571058105910509F0F0
:1018600098F49701A8016D2F7C2F8B2F9D2D01E0FF
:101870000E945C3320833183428353836483758366
:101880008683978381E0FCCE80E0FACE833081F0BE
:1018900028F4813099F08230A9F008958730A9F0BA
:1018A0008830C9F08430B1F4809180008F7D03C00E
:1018B000809180008F7780938000089584B58F7722
:1018C00084BD089584B58F7DFBCF8091B0008F7764
:1018D0008093B00008958091B0008F7DF9CFCF93B1
:1018E000DF93282F30E0F901E25BF84F8491F90192
:1018F000E65CF84FD491F901EA5DF84FC491CC232E
:10190000A1F081110E94460CEC2FF0E0EE0FFF1FBA
:10191000E45EF84FA591B491EC91ED2381E090E065
:1019200009F480E0DF91CF91089580E090E0FACF54
:10193000CF92DF92EF92FF921F93CF93DF93C2E794
:10194000D4E0EB80F12C8A810E946F0C6C011B812A
:1019500089810E946F0C98819F70EC24FD24EE0C0D
:10196000FF1CE12FE827EE2924E0929FC0011124FB
:101970008E5D9E4FE80FF92FF11D80818883807363
:10198000DF91CF911F91FF90EF90DF90CF9008955E
:101990001F93CF93DF93282F30E0F901E25BF84FDC
:1019A0008491F901E65CF84FD491F901EA5DF84FB2
:1019B000C491CC23A9F0162F81110E94460CEC2F64
:1019C000F0E0EE0FFF1FEE5EF84FA591B4918FB7D8
:1019D000F894EC91111108C0D095DE23DC938FBFF1
:1019E000DF91CF911F910895DE2BF8CFCF93DF9336
:1019F00090E0FC01E65CF84F24918A5D984FFC0171
:101A000084918823C9F090E0880F991FFC01E85F5A
:101A1000F84FA591B491FC01EE5EF84FC591D491B9
:101A200061110DC09FB7F8948C91209582238C93FF
:101A30008881282328839FBFDF91CF91089562304A
:101A400051F49FB7F8943C91822F809583238C9317
:101A5000E8812E2BEFCF8FB7F894EC912E2B2C939F
:101A60008FBFEACF3FB7F8948091AE029091AF025A
:101A7000A091B002B091B10226B5A89B05C02F3F3E
:101A800019F00196A11DB11D3FBFBA2FA92F982FA4
:101A90008827BC01CD01620F711D811D911D42E09F
:101AA000660F771F881F991F4A95D1F708958F9267
:101AB0009F92AF92BF92CF92DF92EF92FF926B0113
:101AC0007C010E94320D4B015C01C114D104E10480
:101AD000F104B9F00E94320D681979098A099B094D
:101AE000683E73408105910580F321E0C21AD10858
:101AF000E108F10888EE880E83E0981EA11CB11C55
:101B0000E4CFFF90EF90DF90CF90BF90AF909F9089
:101B10008F900895089508950895AF92BF92CF923F
:101B2000DF92EF92FF920F931F93CF93DF936C019D
:101B30007B018B01040F151FEB015E01AE18BF087E
:101B4000C017D10759F06991D601ED91FC91019030
:101B5000F081E02DC6010995892B79F7C501DF9148
:101B6000CF911F910F91FF90EF90DF90CF90BF909A
:101B7000AF900895FC01538D448D252F30E0842FC4
:101B800090E0821B930B541710F0CF9608950197A5
:101B90000895FC01918D828D981761F0A28DAE0F92
:101BA000BF2FB11D5D968C91928D9F5F9F73928F19
:101BB00090E008958FEF9FEF08952FB7F8948091EC
:101BC000B2029091B302A091B402B091B5022FBFBE
:101BD0008093420390934303A0934403B09345033F
:101BE0008AE393E00E94C90D97FF26C02FB7F894AF
:101BF0008091B2029091B302A091B402B091B5026B
:101C00002FBF409142035091430360914403709170
:101C10004503841B950BA60BB70B40913E035091D7
:101C20003F03609140037091410384179507A60715
:101C3000B707B0F28FEF9FEF0895FC01918D828D71
:101C4000981731F0828DE80FF11D858D90E0089591
:101C50008FEF9FEF0895FC01918D228D892F90E0E9
:101C6000805C9F4F821B91098F73992708958AE3A7
:101C700093E00E942B0E21E0892B09F420E0822FB3
:101C8000089580E090E0892B29F00E94370E8111A1
:101C90000C9400000895FC01A48DA80FB92FB11D6C
:101CA000A35ABF4F2C91848D90E001968F73992792
:101CB000848FA689B7892C93A089B1898C91837070
:101CC00080648C93938D848D981306C00288F38969
:101CD000E02D80818F7D80830895EF92FF920F9396
:101CE0001F93CF93DF93EC0181E0888F9B8D8C8DC8
:101CF00098131AC0E889F989808185FF15C09FB7BC
:101D0000F894EE89FF896083E889F989808183707E
:101D1000806480839FBF81E090E0DF91CF911F912D
:101D20000F91FF90EF900895F62E0B8D10E00F5F4E
:101D30001F4F0F731127E02E8C8D8E110CC00FB624
:101D400007FCFACFE889F989808185FFF5CFCE01BC
:101D50000E944B0EF1CFEB8DEC0FFD2FF11DE35ADE
:101D6000FF4FF0829FB7F8940B8FEA89FB8980813F
:101D70008062CFCFCF93DF93EC01888D8823B9F0B9
:101D8000AA89BB89E889F9898C9185FD03C0808186
:101D900086FD0DC00FB607FCF7CF8C9185FFF2CF03
:101DA000808185FFEDCFCE010E944B0EE9CFDF9100
:101DB000CF910895CF93DF93EC018D85882329F08F
:101DC00081508D87DF91CF9108959C818E819817E6
:101DD000C8F788896827E881F9810084F185E02DBA
:101DE00042E0CE0109958C818F5F8C83EBCFDC01C3
:101DF000ED91FC910084F185E02D40E009940F9372
:101E00001F93CF938C01FC016483C085C60F6C2F98
:101E10006F700E94F70E6C2F62956F706061C80141
:101E2000CF911F910F910C94F70EFC0127812695FD
:101E300026952695621738F465832385620F6770AF
:101E4000606B0C94F70E08951F93CF93DF93EC0112
:101E5000142F8E81681718F4CE010E94FF0E612F97
:101E6000CE01DF91CF911F910C94150FCF92DF928D
:101E7000EF92FF920F931F93CF93DF93EC01F62E17
:101E8000C42ED22E1D868F8186958695869508173D
:101E900010F00FEF080F1D2D011780F0412F6F2D4F
:101EA000CE010E94240FEF2CCE1430F06889CE01B1
:101EB0000E94DA0EE394F8CF1F5FEECF4D2D6F2D09
:101EC000CE01DF91CF911F910F91FF90EF90DF90A6
:101ED000CF900C94240F2F923F924F925F926F926B
:101EE0007F928F929F92AF92BF92CF92DF92EF92AA
:101EF000FF920F931F93CF93DF9300D000D000D0B9
:101F00001F92CDB7DEB79F838E83DC011E968D9125
:101F10009C91009709F47EC1FC0132965490319651
:101F20002491E22EF12CB7E0EB0EF11C43E0F59486
:101F3000E7944A95E1F7E9823196349131964491DC
:101F40006D3031F5EE81FF81868181111BC081E00A
:101F500090E027960FB6F894DEBF0FBECDBFDF919D
:101F6000CF911F910F91FF90EF90DF90CF90BF9096
:101F7000AF909F908F907F906F905F904F903F9029
:101F80002F90089560E08E819F810E94FF0EDFCF29
:101F90006A3009F067C0AE81BF8116968C911697A2
:101FA000882321F060E0CD010E94FF0EEE81FF81C9
:101FB00001890E9DE02C112465816E0D8485882396
:101FC00049F027812695269526958E2D821B860F12
:101FD00018162CF08E819F810E94150FB8CFAE810C
:101FE000BF811B969C911B97890F87701B968C93C2
:101FF0001B972E1915962C9315971E96ED91FC9113
:10200000309771F13396E491F0E0379633E0F5952F
:10201000E7953A95E1F70E9F002D1124EFEFE20FBF
:102020000E0FEE81FF81468141506481CF010E94F5
:10203000360FAE81BF811C968C911C97813009F0C0
:1020400086CF1B966C911B97660F660F660F6F739A
:102050001A966C931A976064CD010E94F70E77CFA1
:1020600000E0DCCF631760F1A32FA40FBB27BB1FD9
:102070006A171B062CF5631B212C8C010A5F1F4F6E
:10208000EE81FF8151853189539F302D11243D838D
:10209000211014C0FC0134910196FC018491932F0E
:1020A0000297A0F45E9C90015F9C300D1124629F0A
:1020B000C001639F900D1124080F191F612C28C0C7
:1020C000603209F0A7C022242394D7CF277088E07C
:1020D000682E621A211101C0612CF80120E090E005
:1020E00080E0621731F03491830F911D2F5F31969C
:1020F000F8CFF801E60FF11D5490E89EF001E99E3B
:10210000F00DF89EF00D1124E40FF11D0E0F1F1FAE
:10211000AE81BF811496BC91BA83EE81FF81F581B7
:10212000FB83AE81BF811D96BC91BC83852C912C15
:10213000AA24A394B12C312CE9813E1608F068C082
:10214000412CAE81BF8151968C915197481608F071
:1021500058C0EC811D96EC93311002C0442051F020
:10216000AE81BF8115964C9115974F5F6A81CD0165
:102170000E94240FD12CC12CC514B0F5712C211054
:1021800004C0F801EC0DFD1D7490662061F0EA14A6
:10219000FB0449F4E72DF0E0062C02C0F595E79525
:1021A0000A94E2F77E2EEE81FF818189823079F4F4
:1021B0004420B1F072948FE07822E72DF0E0EE50E9
:1021C000F94F7490672D8E819F810E94DA0E672DE2
:1021D0008E819F810E94DA0E3FEFC31AD30ACCCFC3
:1021E000F72DFF707F2EE9CFD12C8D81D81639F0D5
:1021F00060E08E819F810E94DA0ED394F6CF4394E3
:10220000A0CF3394AFEFAA1ABA0A080D191D94CFC4
:102210006B81E0CE90E080E09CCE0F93CF93DF9374
:10222000EC011B861A8660E40E94F70E0F8106956A
:102230000695069501504E81415020E060E0CE01A8
:102240000E94360FDF91CF910F91089520917E0269
:10225000260F3327331F21323105ECF42091100370
:10226000FC0190E080E0243069F082E00895A091C4
:102270007E022191AC01425A5D4FA40FB52FB11DD2
:102280002C930196861798F380917E02680F6093D5
:102290007E0280E0089581E008951092100381E0AD
:1022A00080930F031092EA0261E082E10E94C80C61
:1022B00061E083E10E94C80CE9EBF0E080818E7F51
:1022C000808380818D7F808388E48093B80085E45B
:1022D0008093BC000895CF93DF9391E090935D02CB
:1022E0008823B9F0C091B800D091BA008091BC00A9
:1022F0008A7B8093BC0060E082E10E94C80C60E0B1
:1023000083E10E94C80C0E944D11D093BA00C09383
:10231000B800DF91CF9108958F929F92AF92BF92B4
:10232000CF92DF92EF92FF920F931F93CF93DF93A1
:10233000D0913903D13208F0D7C0182FC09138039B
:102340000E94320D6B017C018091100381116BC0E2
:1023500082E08093100310930F038FEF80930E039E
:1023600010920D03D0930C03A8E1B3E0ECEEF2E081
:1023700080E0D81391C01092EB028091EB02CC0F59
:10238000C82BC093EB028091EA02813009F088C02B
:102390001092EA020E94320D6B017C018091EB02E7
:1023A0008093BB008091120390911303A0911403BA
:1023B000B0911503892B8A2B8B2BA1F00E94320D33
:1023C000009112031091130320911403309115030F
:1023D0006C197D098E099F09061717072807390709
:1023E00008F442C08091BC0083FDD8CF85EC809377
:1023F000BC000E94320D6B017C0180911003823081
:1024000009F450C080910E038F3F09F46FC0809192
:102410000E03803209F46CC080910E03803309F4FE
:1024200069C084E026C08091120390911303A091AB
:102430001403B0911503892B8A2B8B2B09F484CFBD
:102440000E94320D8090120390901303A090140309
:10245000B09015036C197D098E099F0986169706A1
:10246000A806B90608F070CF809111030E946B1185
:1024700085E0109217031092390310921603DF9132
:10248000CF911F910F91FF90EF90DF90CF90BF9071
:10249000AF909F908F9008959D9191938F5F69CF9A
:1024A00085EEA5CF8091120390911303A0911403A0
:1024B000B0911503892B8A2B8B2B09F49ECF0E9498
:1024C000320D0091120310911303209114033091E7
:1024D00015036C197D098E099F0906171707280730
:1024E000390708F08ACFC0CF81E0C3CF80E0C1CFE9
:1024F00082E0BFCF83E0BDCF0895E091C902809113
:10250000C802E81730F4F0E0E653FD4F808190E018
:1025100008958FEF9FEF08959091C9028091C802AE
:102520002FEF3FEF981748F4E92FF0E0E653FD4F07
:10253000208130E09F5F9093C902C9010895CF9236
:10254000DF92EF92FF920F931F93CF93DF937C0163
:10255000CB018A0120911603222389F0EB016B0144
:10256000C40ED51ECC15DD0569F06991D701ED913A
:10257000FC910190F081E02DC7010995F3CF642F04
:102580000E942611C801DF91CF911F910F91FF90FA
:10259000EF90DF90CF900895CF93DF931F92CDB748
:1025A000DEB76983209116032223F9F020913903C5
:1025B000203258F021E030E0FC013383228390E0A8
:1025C00080E00F90DF91CF91089580911703E82F5D
:1025D000F0E0E85EFC4F998190838F5F8093170352
:1025E0008093390381E090E0ECCF61E0CE01019669
:1025F0000E942611F7CFCF93C62F9091690421E056
:102600002093160390933803109217031092390306
:10261000682F87ED93E00E94CC126C2F87ED93E03A
:102620000E94CC1281E0CF910C948C11EF92FF921A
:102630000F931F93CF93DF93062F7A019091690434
:1026400021E0209316039093380310921703109201
:102650003903682F87ED93E00E94CC12E70110E068
:10266000CE018E199F098017910734F4699187ED87
:1026700093E00E94CC12F4CF81E0DF91CF911F91C3
:102680000F91FF90EF900C948C11AB01BC01DC0119
:10269000CA0189579241A240B10987349142A540AD
:1026A000B10508F4ACC0DB01CA0189519F44A740C1
:1026B000B10987329842A441B10508F4A0C0DB01FA
:1026C000CA0189539C49AC41B109833F9E47A1058A
:1026D000B10508F494C0DB01CA01855B9E42AD419F
:1026E000B1098B329943A841B10508F488C0DB01D8
:1026F000CA018156904AA643B1098F349044A14043
:10270000B10508F47CC0DB01CA0189559244A84395
:10271000B10987349147A105B10508F470C0DB0108
:10272000CA0181599648A943B10987309245A1054C
:10273000B10508F464C0DB01CA0189549F40AA4373
:10274000B1098737904CA043B10508F458C0DB01AC
:10275000CA0181509D4DAD46B1098F319044AC42C4
:10276000B10508F44CC0DB01CA018157904EAA495B
:10277000B1098F309F4BAA43B10508F440C0DB017B
:10278000CA01815B964FAA4DB1098F369B4BA84376
:10279000B105A8F1DB01CA01815C9843A541B140B4
:1027A0008F379643AB42B10550F1DB01CA0181512D
:1027B0009D44A744B1408F379D47A443B105F8F02D
:1027C000DB01CA0181539145AD47B1408F3C9D4E1D
:1027D000AD42B105A0F0DB01CA01815A9F42A54C70
:1027E000B1408F3D904CA543B14048F081E090E06E
:1027F0004138594F6743734024F480E0089581E0E5
:1028000090E0089584E98093BC0085E69091BC0037
:1028100094FF03C08150D1F7089581E0089560E0EE
:1028200084E00E94F60C1092A6021092A50280ECA1
:102830009FECA6E0B0E08093060190930701A0937F
:102840000801B093090110928000E1E8F0E081E016
:10285000808381E8808380B7846080BF089560E0D2
:1028600084E00E94F60C2091E3033091E403409150
:10287000E5035091E6036091E7037091E8038091CE
:10288000E9039091EA032F3736494849510561051C
:1028900071058105910509F09CF488EA9DEF9093FC
:1028A000A6028093A5028CE79BEEA6E0B0E08093A1
:1028B000060190930701A0930801B09309010895C0
:1028C00088E592E09093A6028093A50280EC9FECAD
:1028D000A6E0B0E0ECCFFC016093BC002FEF3FEF2F
:1028E0008091BC0087FF06C09091B900987F9083CB
:1028F00081E008952150310999F780E00895CF9340
:10290000DF93EC016093BB0064E80E946B148823A2
:1029100029F081E09881983209F080E0DF91CF9131
:102920000895DF92EF92FF920F931F93CF93DF935F
:10293000EC01D62EF42E8C89882329F0411103C096
:102940000E9402141C8A8E010E5E1F4F8C89811119
:1029500019C0EB8864EAC8010E946B14882361F0F7
:102960008A89883011F0803139F4EE0CE092BB0096
:1029700064E8C8010E946B1460E0F11060E4C801D3
:102980000E947F146D2DC8010E947F1482E0F8120E
:102990000BC08C898F5F8C8BDF91CF911F910F9132
:1029A000FF90EF90DF9008950E9402141C8AF4CFEC
:1029B00090E080E00895CF92DF92EF92FF920F9324
:1029C0001F93CF939091690421E020931603909375
:1029D00038031092170310923903682F87ED93E0A4
:1029E0000E94CC1281E00E948C11C09169040E9467
:1029F000320D6B017C0180911003811165C081E073
:102A00008093100310920F039FEF90930E03109288
:102A10000D0310920C038093EB028091EB02CC0F1C
:102A2000C82BC093EB028091EA02813009F080C08C
:102A30001092EA020E94320D6B017C018091EB0240
:102A40008093BB008091120390911303A091140313
:102A5000B0911503892B8A2B8B2BA1F00E94320D8C
:102A60000091120310911303209114033091150368
:102A70006C197D098E099F09061717072807390762
:102A800008F443C08091BC0083FDD8CF85EC8093CF
:102A9000BC000E94320D6B017C01809110038130DB
:102AA00009F448C080910D03C1E0811102C0C091BA
:102AB0000D03ECEEF2E0AAECB2E080E08C1751F1ED
:102AC00091919D938F5FFACF8091120390911303A0
:102AD000A0911403B0911503892B8A2B8B2B09F439
:102AE0008ACF0E94320D009112031091130320919E
:102AF0001403309115036C197D098E099F0906177F
:102B000017072807390708F076CF809111030E9434
:102B10006B11C0E01092C902C093C80280E090918E
:102B2000C902C91749F187ED93E00E948C12F7CFD3
:102B300085EEADCF8091120390911303A091140301
:102B4000B0911503892B8A2B8B2B09F4A6CF0E94F9
:102B5000320D009112031091130320911403309150
:102B600015036C197D098E099F0906171707280799
:102B7000390708F092CFC9CFCF911F910F91FF90E5
:102B8000EF90DF90CF900895CF93DF93D82FC62F8B
:102B900083E00E94DB1461E070E001C0660FDA950B
:102BA000EAF7C13039F46095682383E0DF91CF9173
:102BB0000C94FB12682BF9CF8091A9029091AA0284
:102BC0000197D9F460E090E080E00E94C41561E0D4
:102BD00081E090E00E94C41561E082E090E00E94F4
:102BE000C41560E08DE00E94C80C61E08CE00E949A
:102BF000C80C1092AA021092A90208951F93CF93B5
:102C0000DF93C62F142F825C9E4FFC01D0818D2F45
:102C10000E94DB14837811118C60F0E1CF9FB0012A
:102C20001124682B8D2FDF91CF911F910C94FB12F3
:102C3000CF93DF93D62FC0E1C80F8C2F0E94DB14F7
:102C4000682FD13031F460648C2FDF91CF910C94D8
:102C5000FB126F7BF9CFFF920F931F93CF93DF93FC
:102C6000EC018B01F82E80E1F80E8F2D0E94DB1411
:102C7000682F0115110581F46F7D8F2D0E94FB12C5
:102C8000CC0FDD1FC551DC4F1A870987DF91CF912B
:102C90001F910F91FF9008956062EFCF0F931F93E4
:102CA000CF93DF9306EB12E0D0E0C0E0CE010E94AC
:102CB0007931F80181938F012196C231D105B1F7A5
:102CC00086EB92E0DF91CF911F910F910895FF92D3
:102CD0000F931F93CF93DF9306EB12E0D0E0C0E099
:102CE000F801F1908F01CE010E947931F81621F0A0
:102CF0006F2DCE010E9481312196C231D10581F71D
:102D000086EB92E0DF91CF911F910F91FF90089594
:102D10004F925F926F927F928F929F92AF92BF92EB
:102D2000CF92DF92EF92FF920F931F93CF93DF9397
:102D30008091A9029091AA02892B09F05FC080902E
:102D4000E3039090E403D091E503C091E603409043
:102D5000E7035090E8036090E9037090EA03B40140
:102D60008D2F9C2F643122E1720722E082079105AA
:102D70000CF444C00E944513892B09F03FC061E068
:102D800090E080E00E94C41560E08CE00E94C80CD6
:102D900061E08DE00E94C80C0E944E16A090B8021F
:102DA000B090B902C090BA02D090BB02E090BC02D1
:102DB000F090BD020091BE021091BF0294014D2F10
:102DC0005C2FB201C3010E94B03391F08092B8022F
:102DD0009092B902D093BA02C093BB024092BC0257
:102DE0005092BD026092BE027092BF020E946716AE
:102DF00081E090E09093AA028093A902DF91CF91A5
:102E00001F910F91FF90EF90DF90CF90BF90AF9008
:102E10009F908F907F906F905F904F900895FC01EE
:102E200001900020E9F73197AF01481B590BBC0115
:102E300086E794E00C948D0DCF93DF930E940F17DB
:102E4000EC0188E791E00E940F178C0F9D1FDF9126
:102E5000CF910895CF93DF93FC0144815581608128
:102E6000718186E794E00E948D0DEC0188E791E086
:102E70000E940F178C0F9D1FDF91CF9108958F92A5
:102E80009F92AF92BF92CF92DF92EF92FF92CF9339
:102E9000DF93CDB7DEB7A1970FB6F894DEBF0FBEB4
:102EA000CDBF86E794E00E940D118CE692E00E946F
:102EB000E30340E060E086E794E00E94240F8BE7A4
:102EC00091E00E941C1741E06DE286E794E00E94C9
:102ED000240F81E891E00E941C1781E890E00E9495
:102EE000E30344E06EE186E794E00E94240F82E071
:102EF00080938704C0901201D09013010D2C000C18
:102F0000EE08FF08F7FE42C06DE286E794E00E94FB
:102F10006B0F22273327A9012C193D094E095F09A0
:102F200019A2CE0181967C019AE0892E912CA12CC8
:102F3000B12CCA01B901A50194010E94E931605D7B
:102F4000F70162937F01211531054105510589F78C
:102F5000E114F10419F0C7010E940F178AE891E00B
:102F60000E941C1781E080938704A1960FB6F89405
:102F7000DEBF0FBECDBFDF91CF91FF90EF90DF900E
:102F8000CF90BF90AF909F908F900895A70196012A
:102F900019A2CE0181967C018AE0882E912CA12C69
:102FA000B12CCA01B901A50194010E94E931605D0B
:102FB000F70162937F01211531054105510589F71C
:102FC000C7CF2F923F924F925F926F927F928F92D4
:102FD0009F92AF92BF92CF92DF92EF92FF920F93A8
:102FE0001F93CF93DF93CDB7DEB72D970FB6F8942D
:102FF000DEBF0FBECDBF3C01C982DA82EB82FC820C
:103000000D831E832F83388749875A876B877C8778
:10301000BAA03C2C2D2C5E2C0D87412E922EC984FB
:10302000DA84EB84FC8484E190E00E94DF338C013D
:10303000FC01D082C182862D880F880F880F845DA5
:103040000E94DB14F52DF3705F2E8C7F582AF80157
:103050005282238234828CE0F694E794D794C7940A
:103060008A95D1F7FC2DF07FCF2E892D8F70C82A3D
:10307000F801C58246828D85878393E069167104C5
:1030800009F46CC0A8F5F1E06F16710409F448C0AA
:1030900082E06816710409F452C0A80168E08AE26F
:1030A0000E9416136A2D90E080E00E9418164B2DA6
:1030B000682D90E080E00E94FE15C8012D960FB6A5
:1030C000F894DEBF0FBECDBFDF91CF911F910F915E
:1030D000FF90EF90DF90CF90BF90AF909F908F9038
:1030E0007F906F905F904F903F902F900C947B3427
:1030F00094E06916710409F440C0E5E06E167104AD
:1031000061F6A80168E082E50E9416136A2D85E049
:1031100090E00E9418164B2D682D85E090E0CBCFF3
:10312000A80168E082E30E9416136A2D81E090E016
:103130000E9418164B2D682D81E090E0BCCFA801AD
:1031400068E08AE30E9416136A2D82E090E00E94F4
:1031500018164B2D682D82E090E0ADCFA80168E0F5
:1031600082E40E9416136A2D83E090E00E941816F4
:103170004B2D682D83E090E09ECFA80168E08AE4A3
:103180000E9416136A2D84E090E00E9418164B2DC1
:10319000682D84E090E08FCF2F923F924F925F9204
:1031A0006F927F928F929F92AF92BF92CF92DF9257
:1031B000EF92FF920F931F93CF93DF93CDB7DEB7BC
:1031C0002E970FB6F894DEBF0FBECDBF19013A019E
:1031D0004B018D879E872801012B09F073C0E09178
:1031E0005404F0915504EE0FFF1FEE0FFF1FE05A3D
:1031F000FB4FA080B180C280D380CE0101967C01BC
:1032000089019301AB016D857E8590E080E00E948D
:10321000F50384E190E00E94DF338C0189859A8573
:10322000AB85BC85F8019083818339814A812B81EC
:1032300023702283438334832CE0B695A79597951A
:1032400087952A95D1F7807F2D813E819F819F7040
:10325000892B8583368327834114510409F04BC0A1
:10326000A80168E08AE10E9416132092440430927B
:1032700045046092460470924704809248049092FC
:103280004904FD85F0934A048E8580934B04C80160
:103290002E960FB6F894DEBF0FBECDBFDF91CF9153
:1032A0001F910F91FF90EF90DF90CF90BF90AF9064
:1032B0009F908F907F906F905F904F903F902F9056
:1032C0000C947B34E0915604F0915704EE0FFF1FED
:1032D000EE0FFF1FE05AFB4FA080B180C280D38069
:1032E000FE0131967F0181019A01AB016D857E85DA
:1032F00081E090E08CCF4A94452849F6A80168E027
:1033000082E20E94161320924C0430924D04609287
:103310004E0470924F048092500490925104ED85B7
:10332000E0935204FE85F0935304B1CF2F923F9265
:103330004F925F926F927F928F929F92AF92BF92C5
:10334000CF92DF92EF92FF920F931F93CF93DF9371
:10335000CDB7DEB7E5970FB6F894DEBF0FBECDBF91
:10336000E22E29A3F32E3AA34BA35CA36DA37EA365
:103370008FA398A7702E612E9701AFEF0E949B3309
:103380002E373A4146405105610571058105910589
:1033900009F058F480E889A38AE18AA386E08BA328
:1033A0001CA21DA21EA21FA218A629A13AA14BA1D0
:1033B0005CA16DA17EA18FA198A52115314C4A4138
:1033C0005D43654071058105910569F060F019A2C2
:1033D00081EC8AA38AE18BA38DE38CA385E08DA386
:1033E0001EA21FA218A6D9A04AA05BA0ACA0EDA067
:1033F000FEA00FA118A5272C362C2D2D342D452DE0
:103400005A2DB701C8012115344E4B405445624036
:1034100071058105910509F008F425C1A4E04A2E43
:10342000A4E05A2E2BEE33E03AA729A78901F20136
:10343000D12CC101880F991FDC01AC50BC4F7D011C
:103440002081318142815381648175818681978198
:1034500038962115344E4B40544562407105810524
:10346000910571F068F0D71459F0D80119962D9193
:103470003C91D7018D919C912817390709F46AC1B5
:10348000D3940E5F1F4FB6E0DB12DACF81010659ED
:103490001B4FF8018081811108C061E0872D962DB6
:1034A0000E94C41581E0D8018C9329A13AA14BA1B7
:1034B0005CA16DA17EA18FA198A5D101E3E0AA0F27
:1034C000BB1FEA95E1F7A551BC4FFD0179965996CE
:1034D0002C933183428353836483758386839783DC
:1034E000FE013D964F01A12CB12CC12CD12CE12C19
:1034F000F12C00E010E00E94F0082BA73CA74DA79C
:103500005EA76FA778AB89AB9AABC101880F991FF3
:103510009C0125513C4F7901D90119960D911C91BF
:103520002BA53CA589A99AA90E94CC18712C612CC5
:10353000F7013996FDABECABD201AC901196EC9053
:1035400011971296FC90129713960C91139714965C
:103550001C9114971596BC91F201D680C780F8E0B3
:103560004F0E511C2A2D3E2D4F2D502F612F7B2F9A
:103570008D2D9C2DA0E00E94B93309F455C0E9A51A
:10358000FAA521853285ECA9FDA9808191812817B2
:10359000390709F049C0A98EEA8EFB8E0C8F1D8F6A
:1035A000BE8FDF8EC8A2CE0149960E94060B8BAB60
:1035B000298D3A8D4B8D5C8D6D8D7E8DCE01019662
:1035C0004C01ABA4BCA4CDA4DEA4EFA4F8A809A927
:1035D0001AA98F8D98A10E94F008AA24A394298D7E
:1035E0003A8D4B8D5C8D6D8D7E8D8F8D98A12F3F8B
:1035F000354D41415E47634071058105910509F0F4
:1036000008F4A12CAF928BA8C980DA80EB80FC80F3
:103610000D811E812F81388549855A856B857C8572
:10362000C3010E94E1170F90BFEF6B1A7B0AE9A557
:10363000FAA53296FAA7E9A7F6E06F16710409F029
:103640007BCFF101EE0FFF1FE551FC4F8185928585
:1036500060E2009719F0019721F460E881EB0E9485
:10366000FB1280E078C0D10193E0AA0FBB1F9A95AE
:10367000E1F7A551BC4FFD0179965996DC92418244
:103680005282A382E482F582068317838101065960
:103690001B4FD8018C91811108C061E0872D962DB8
:1036A0000E94C41581E0F8018083CE0181960E94BA
:1036B000060B582EF101EE0FFF1FE551FC4F018460
:1036C000F285E02D29A13AA14BA15CA16DA17EA1BB
:1036D0008FA198A5EF2B51F5A0904404B09045041C
:1036E000C0904604D0904704E0904804F09049040C
:1036F00000914A0410914B04DE011D964D010E9479
:10370000F0081F92852CA12CCD84DE84EF84F888EC
:1037100009891A892B893C894D895E896F89788D41
:10372000872D962D0E94E1170F909BCFA0904C04FF
:10373000B0904D04C0904E04D0904F04E0905004DF
:10374000F09051040091520410915304FE013D96F3
:103750004F01D5CF81E0E5960FB6F894DEBF0FBEDE
:10376000CDBFDF91CF911F910F91FF90EF90DF9030
:10377000CF90BF90AF909F908F907F906F905F9011
:103780004F903F902F9008952F923F924F925F92CB
:103790006F927F928F929F92AF92BF92CF92DF9261
:1037A000EF92FF920F931F93CF93DF93CDB7DEB7C6
:1037B00028970FB6F894DEBF0FBECDBF9090E303FD
:1037C0002091E40328873091E5033F838090E6034E
:1037D0003090E7032090E8034091E9034D83509136
:1037E000EA035E8384E6A82EB12CC12CD12CE12CF7
:1037F000F12C00E010E0292D38854F81582D632DE4
:10380000722D8D819E810E942A3210E000E00E947C
:103810009619409006015090070160900801709041
:103820000901D301C201BB0F880B982FDC018983EA
:103830009A83AB83BC83292D38854F81582D632D06
:10384000722D8D819E8152016301E980FE2C0E2D27
:103850001E2D0E94A733E4E6AE2EB12CC12CD12C34
:10386000E12CF12C00E010E00E942A3201E010E08F
:103870000E9496198091A5029091A602092E000C33
:10388000AA0BBB0BA3019201281B390B4A0B5B0B44
:10389000CA01B90124E630E040E050E00E948232E3
:1038A00002E010E00E94961928960FB6F894DEBF49
:1038B0000FBECDBFDF91CF911F910F91FF90EF9081
:1038C000DF90CF90BF90AF909F908F907F906F9040
:1038D0005F904F903F902F9008950F931F936093A8
:1038E0006004709361048093620490936304E4E441
:1038F000F4E020813181428153816481758110E03F
:1039000000E0868197810E94CC18ECE4F4E02081ED
:103910003181428153816481758101E010E08681AB
:1039200097810E94CC181F910F910895CF93DF9338
:10393000EC0188819981009711F00E947B341982F3
:1039400018821D821C821B821A82DF91CF910895FA
:10395000FC0180819181009711F00C947B340895D3
:103960000E94C135FC0124813581232B39F421E0EB
:10397000FB018081882349F020E007C0808191818C
:103980000E94E93521E0892BB9F7822F08950F9322
:103990001F93CF93DF938C01EB01FC018081918118
:1039A0000097E1F06881798161157105A9F0428184
:1039B00053812C813D814217530770F00E94F235EC
:1039C0008C819D81F801958384831D821C82DF9107
:1039D000CF911F910F9108950E947B348881998126
:1039E000F801918380838A819B81938382838C8178
:1039F0009D8195838483198218821B821A82E5CF68
:103A00000F931F93CF93DF93EC01888199810097E7
:103A100059F02A813B812617370730F081E0DF918A
:103A2000CF911F910F9108958B016F5F7F4F0E947F
:103A30000435009759F0998388831B830A832C816E
:103A40003D81232B59F7FC011082E8CF80E0E7CFBE
:103A5000EF92FF920F931F93CF93DF936115710540
:103A600041F480E0DF91CF911F910F91FF90EF9093
:103A7000089541155105B1F07B01EC010C811D81C8
:103A8000040F151FB8010E94001D882351F32881DF
:103A900039818C819D81B701820F931F0E94F2357D
:103AA0001D830C8381E0DECFCF93DF93EC01FB011C
:103AB00001900020E9F73197AF01461B570B0E9498
:103AC000281D811103C0CE010E94961CCE01DF91FA
:103AD000CF910895CF93DF93EC01FB014481558191
:103AE000608171810E94281D811103C0CE010E9456
:103AF000961CCE01DF91CF910895CF93DF9300D034
:103B0000CDB7DEB769831A8241E050E0BE016F5F36
:103B10007F4F0E94281D0F900F90DF91CF91089545
:103B2000EF92FF920F931F93CF93DF93EC017B01F2
:103B30008A01BA010E94001D81110BC0CE010E94B2
:103B4000961CCE01DF91CF911F910F91FF90EF90C6
:103B500008951D830C83B701888199810E94F235F5
:103B6000F0CFFB0101900020E9F73197AF01461B30
:103B7000570B0C94901D0F931F93CF93DF93CDB7EA
:103B8000DEB7A2970FB6F894DEBF0FBECDBF8C0193
:103B9000CB01BA01F80111821082138212821582C0
:103BA00014822AE0AE014F5F5F4F0E940931BE01CF
:103BB0006F5F7F4FC8010E94B11DA2960FB6F894A7
:103BC000DEBF0FBECDBFDF91CF911F910F91089542
:103BD0000F931F93CF93DF93CDB7DEB762970FB6E6
:103BE000F894DEBF0FBECDBF8C01CB01F80111826E
:103BF000108213821282158214824AE0BE016F5F26
:103C00007F4F0E94FE30BE016F5F7F4FC8010E9450
:103C1000B11D62960FB6F894DEBF0FBECDBFDF9127
:103C2000CF911F910F910895CF93DF93EC01FB018A
:103C30008617970749F0608171816115710541F020
:103C4000448155810E94901DCE01DF91CF9108954E
:103C50000E94961CF9CFFC011182108213821282FD
:103C600015821482FB0101900020E9F73197AF0122
:103C7000461B570B0C94901DAF92BF92CF92DF92D0
:103C8000EF92FF920F931F93CF93DF936C015B0131
:103C90007A0189012417350720F48F2D7901042F2B
:103CA000182F6AE771E0C6010E942B1ED5011496F9
:103CB000CD91DC91EC16FD06E0F40C171D0708F41D
:103CC000E801D501ED91FC911197EC0FFD1F1081DA
:103CD00010826D917C916E0D7F1DC601611571057D
:103CE000A1F00E94B11DF50180819181C80FD91FFB
:103CF0001883C601DF91CF911F910F91FF90EF9034
:103D0000DF90CF90BF90AF9008950E94961CEBCFAC
:103D1000EF92FF920F931F93CF93DF93CDB7DEB750
:103D2000A4970FB6F894DEBF0FBECDBF4091E3035A
:103D30005091E4036091E5037091E603CE0149964A
:103D40000E94BB1D6AE771E0CE014F960E942B1EB8
:103D50008091AB029091AC026AE971E081309105EB
:103D600059F065EA71E08230910531F06FE871E059
:103D7000892B11F06AE771E0CE014F960E94B11DC8
:103D80008D8D9E8D8730910509F4EAC088309105AC
:103D900009F43FC0069709F02FC126E030E043E068
:103DA00050E0BE01675E7F4FCE010D960E943C1E23
:103DB00023E030E050E040E0BE01675E7F4FCE017F
:103DC00007960E943C1E62EB71E0CE0101960E94B4
:103DD0002B1EBE01695F7F4FCE0101960E946A1DB6
:103DE00060EB71E00E94541DBE01635F7F4F0E9433
:103DF0006A1DBC01CE0149960E94141ECE01019697
:103E00000E94A81CCE0107960E94A81CCE010D9608
:103E100055C028E030E045E050E0BE01675E7F4FCE
:103E2000CE0143960E943C1E25E030E042E050E087
:103E3000BE01675E7F4FCE010D960E943C1E22E0C0
:103E400030E050E040E0BE01675E7F4FCE0101965A
:103E50000E943C1E18861F821A8619861C861B86A5
:103E6000BE016F5F7F4FCE0107960E94141E60EB6C
:103E700071E0CE0107960E94541DBE01635F7F4F23
:103E80000E946A1D60EB71E00E94541DBE016D5ED0
:103E90007F4F0E946A1DBC01CE0149960E94141EEC
:103EA000CE0107960E94A81CCE0101960E94A81C74
:103EB000CE010D960E94A81CCE0143960E94A81C1C
:103EC00000910401109105010330110534F0063012
:103ED00011050CF098C00F5F1F4F86E794E00E9419
:103EE0000D118CE692E00E94E30340E060E086E77B
:103EF00094E00E94240F8BE791E00E941C1741E0A0
:103F00006DE286E794E00E94240FCE014F960E9456
:103F10002A1781E890E00E94E30343E060E086E72F
:103F200094E00E94240F82E080938704CE0149969A
:103F30000E942A1745E060E086E794E00E94240F83
:103F4000F12CE12C01501109E016F1060CF05EC0D5
:103F500084EB91E00E940F178FEFE81AF80AF4CF74
:103F600027E030E044E050E0BE01675E7F4FCE01C5
:103F700043960E943C1E24E030E041E050E0BE0148
:103F8000675E7F4FCE010D960E943C1E21E030E01F
:103F900050E040E0BE01675E7F4FCE0107960E9471
:103FA0003C1E64EB71E0CE0101960E942B1EBE0107
:103FB000695F7F4FCE0101960E946A1D60EB71E040
:103FC0000E94541DBE01635F7F4F0E946A1D60EB1B
:103FD00071E00E94541DBE016D5E7F4F0E946A1DFC
:103FE000BC01CE0149960E94141ECE0101960E948A
:103FF000A81CCE0107965ACFBE01675E7F4FCB014A
:104000000E94141E5DCF0E5F1F4F67CF86EB91E0BD
:104010000E941C1781E08093870446E06BE686E7E8
:1040200094E00E94240F8CE692E00E94E30388EB68
:1040300091E00E941C17CE014F960E94A81CCE0151
:1040400049960E94A81CA4960FB6F894DEBF0FBE36
:10405000CDBFDF91CF911F910F91FF90EF90089509
:10406000CF93DF938BE00E946F0C892B09F0A3C0E4
:1040700068EC70E080E090E00E94570D8BE00E94B9
:104080006F0C892B09F060C08BE00E946F0C892BAC
:1040900009F091C00E94980C90E080319105A9F53B
:1040A0008091E3039091E403A091E503B091E603CE
:1040B0004091000150910101609102017091030152
:1040C000840F951FA61FB71F813829EF920727E39A
:1040D000A20723E0B207A4F48093E3039093E403E0
:1040E000A093E503B093E603BB0F880B982FDC0188
:1040F0008093E7038093E8038093E9038093EA03C6
:104100000E94C41B0E94881EBFCF809709F0BCCFBD
:104110008091E3039091E403A091E503B091E6035D
:1041200040910001509101016091020170910301E1
:10413000841B950BA60BB70B803422E492072FE06B
:10414000A207B105ECF2C8CFC0910401D0910501DE
:104150002196D0930501C0930401609100017091F4
:10416000010180910201909103012AE030E040E0DA
:1041700050E00E940B3220930001309301014093E4
:10418000020150930301269794F082E090E090930F
:1041900005018093040180E492E4AFE0B0E08093F5
:1041A000000190930101A0930201B0930301DF91FC
:1041B000CF910C94881EDF91CF910895CF93DF9318
:1041C0008BE00E946F0C892B09F053C068EC70E003
:1041D00080E090E00E94570D8BE00E946F0C892BCD
:1041E00021F58091AB029091AC020197F1F40E940D
:1041F0003F178BE00E946F0C892BC9F50E94980C29
:1042000090E08031910509F09DC08091120190915C
:104210001301019690931301809312019093B702BA
:104220008093B6020E946716E2CFC0910401D0913C
:1042300005012196D0930501C0930401609100010E
:104240007091010180910201909103012AE030E018
:1042500040E050E00E940B322093000130930101B6
:10426000409302015093030128970CF074C00E9400
:10427000881E0E94980C90E08031910509F089C059
:104280008091E3039091E403A091E503B091E603EC
:104290004091000150910101609102017091030170
:1042A000840F951FA61FB71F813829EF920727E3B8
:1042B000A20723E0B207A4F48093E3039093E403FE
:1042C000A093E503B093E603BB0F880B982FDC01A6
:1042D0008093E7038093E8038093E9038093EA03E4
:1042E0002091E3033091E4034091E5035091E6030C
:1042F0006091E7037091E8038091E9039091EA03EC
:104300002F373649484951056105710581059105E9
:1043100009F0A4F588EA9DEF9093A6028093A50288
:104320008CE79BEEA6E0B0E0809306019093070136
:10433000A0930801B09309010E94C41BDF91CF91A3
:104340000C94881E809709F054CF809112019091AF
:10435000130101975FCF82E090E090930501809375
:10436000040180E492E4AFE0B0E080930001909318
:104370000101A0930201B093030179CF88E592E097
:104380009093A6028093A50280EC9FECA6E0B0E09B
:10439000CBCF8097E9F48091E3039091E403A0915F
:1043A000E503B091E6034091000150910101609155
:1043B000020170910301841B950BA60BB70B80348F
:1043C00022E492072FE0A207B1050CF489CF74CF45
:1043D000DF91CF91089585ED8093BC008091120309
:1043E00090911303A0911403B09115030796A11D9A
:1043F000B11D23E0B695A795979587952A95D1F796
:104400002091BC0024FD03C0109210030895409138
:104410001203509113036091140370911503452BFF
:10442000462B472B69F30097A105B10541F02AE21D
:104430002A95F1F700C00197A109B109E1CF809158
:1044400011030C946B112F923F924F925F926F92D7
:104450007F928F929F92AF92BF92CF92DF92EF9214
:10446000FF920F931F93CF93DF93CDB7DEB7C6565E
:10447000D1090FB6F894DEBF0FBECDBF6AE771E079
:10448000CE018B960E942B1E6AE771E0CE01C19689
:104490000E942B1E6AE771E0CE01C7960E942B1E78
:1044A0006AE771E0CE01CD960E942B1E6AE771E0AB
:1044B000CE018D5B9F4F0E942B1E6AE771E0CE01FB
:1044C000875B9F4F0E942B1E6AE771E0CE01815BE4
:1044D0009F4F0E942B1E6AE771E0CE018B5A9F4FBF
:1044E0000E942B1E6AE771E0CE01855A9F4F0E9401
:1044F0002B1E6AE771E0CE0101960E942B1E0E94DE
:10450000DD0D97FD06C0682FCE0101960E947D1D2E
:10451000F6CFBE016F5F7F4FCE018B960E94C71C06
:10452000CE0101960E94A81C0BA51CA50115110522
:1045300071F0F80181918F01882349F0082E000C59
:10454000990B0E94C635F80131978083F2CF6AE754
:1045500071E0CE0107960E942B1E69E771E0CE0143
:1045600001960E942B1EAFA4B8A8A114B10409F4AF
:1045700061C08D809E808114910409F45BC0EB843E
:10458000FC84E818F9080BA51CA5E114F104A1F4BA
:1045900069817A81C8010E94F9358C01009709F47C
:1045A00049C06F8178854B855C850E94CE358B85AF
:1045B0009C85080F191FECCFF7FC0FC069807A802B
:1045C0006501C801B3010E94F935009709F461C083
:1045D000880D991DCE0CDF1CF5CF680169817A81A9
:1045E000C8010E94F9355C01009701F14C01801A65
:1045F000910AA401B801C6010E94CE35C80CD91C8D
:104600006F8178854B855C85C6010E94CE358B8590
:104610009C85C80ED91E0D811E810A0D1B1D8FA5FC
:1046200098A98E0D9F1D98AB8FA7D8CFB801C60152
:104630000E94F235CE0101960E94A81CCE01079679
:104640000E94A81C6AE771E0CE018F599F4F0E941B
:104650002B1EF12CE12C10E000E08FA598A9E816A4
:10466000F90608F0BAC0EBA5FCA5309709F085C0A3
:1046700010925C02ECE5F2E060816B3309F480C0DB
:10468000CE018F599F4F0E947D1DFFEFEF1AFF0A49
:10469000E4CFAC14BD0471F28DA59EA58C159D05CB
:1046A00060F4B6016F5F7F4FC8010E940435009728
:1046B00009F29CA78BA7DEA6CDA60FA518A90150CD
:1046C000110917FDB7CF48016D807E806114710418
:1046D00009F4B0CFAFA4B8A8A114B10409F4AACFCB
:1046E000A614B70408F4A6CF0A151B0520F045014F
:1046F000F1E08F1A9108CBA4DCA429803A80C6018E
:104700000FEF1FEF2601480C591C4816590678F088
:10471000B1010E94F935009751F09C012C193D0917
:104720008216930608F4980101968901EECF17FDD1
:1047300081CF600E711EC601860D971DA501461919
:104740005709BC018E0D9F1D0E94D7358FA598A9D2
:104750008E0D9F1D98AB8FA72BA53CA5820F931F95
:10476000FC0110828BA59CA56F8178854B855C85AB
:10477000800F911F0E94CE35A2CFEE0DFF1D7CCF82
:1047800060E0CE018F599F4F0115110599F40E94E9
:104790007D1DBE016F597F4FCE01C1960E94141E30
:1047A0006AE771E0CE018F599F4F0E94B11D01E071
:1047B00010E06BCF0E947D1DBE016F597F4FCE016F
:1047C000C7960E94141E0F5F1F4F6AE771E0CE016B
:1047D0008F599F4F0E94B11D58CF22E030E050E02A
:1047E00040E0BE016F5C7F4FCE0101960E943C1EEF
:1047F000BE016F5F7F4FCE01CD960E94C71CCE01D8
:1048000001960E94A81C22E030E050E040E0BE018A
:10481000695C7F4FCE0101960E943C1EBE016F5F16
:104820007F4FCE018D5B9F4F0E94C71CCE0101962A
:104830000E94A81C2DA93EA942E050E0BE016F5C79
:104840007F4FCE0101960E943C1EBE016F5F7F4FDD
:10485000CE01875B9F4F0E94C71CCE0101960E942C
:10486000A81C2BAD3CAD42E050E0BE01695C7F4F1F
:10487000CE0101960E943C1EBE016F5F7F4FCE01AC
:10488000815B9F4F0E94C71CCE0101960E94A81C0D
:104890006BEB71E0CE01CD960E94B21C882309F427
:1048A000E3C06AE771E0CE01875B9F4F0E94B21CB4
:1048B000811140C02B968EAD9FAD2B97009709F4C8
:1048C00097C00E94D7306B017C0120E4C21A22E419
:1048D000D20A2FE0E20AF108E1E4CE16E7EBDE06A9
:1048E000E8E2EE06E3E0FE06B0F46093E3037093C3
:1048F000E4038093E5039093E603DC01CB01BB0F57
:10490000880B982FDC018093E7038093E803809362
:10491000E9038093EA038091AB029091AC02029785
:1049200009F06AC01092A6021092A5020E94C41B50
:104930000E94881E4091E3035091E4036091E503D7
:104940007091E603CE0149960E94BB1D6EEB71E0AB
:10495000CE010D960E942B1E4091E3035091E4037B
:104960006091E5037091E603CE0107960E94BB1D9E
:104970008B859C852BE030E0281B390B50E040E014
:10498000BE01635F7F4FCE0143960E943C1E6BEBDE
:1049900071E0CE0101960E942B1EBE016D5E7F4F1D
:1049A000CE0101960E946A1DBE01675E7F4F0E9484
:1049B0006A1D6DEE71E00E94541DBC01CE018B5A40
:1049C0009F4F0E94141ECE0101960E94A81CCE018A
:1049D00043960E94A81CCE0107960E94A81CCE01F7
:1049E0000D960E94A81CCE0149960E94A81C94C155
:1049F00060E070E0CB0167CF2091E3033091E403E6
:104A00004091E5035091E6036091E7037091E8035C
:104A10008091E9039091EA032F37364948495105BF
:104A2000610571058105910509F09CF488EA9DEF07
:104A30009093A6028093A5028CE79BEEA6E0B0E0DF
:104A40008093060190930701A0930801B093090198
:104A50006DCF88E592E09093A6028093A50280EC4A
:104A60009FECA6E0B0E0ECCF6AEC71E0CE01CD9611
:104A70000E94B21C882381F14091E3035091E4032A
:104A80006091E5037091E603CE0149960E94BB1D3B
:104A90006EEB71E0CE010D960E942B1E4091E30358
:104AA0005091E4036091E5037091E603CE0107960F
:104AB0000E94BB1D8B859C852BE030E0281B390BA9
:104AC00050E040E0BE01635F7F4FCE0143960E94FD
:104AD0003C1E6AEC71E05DCF6DEC71E0CE01CD96CD
:104AE0000E94B21C882309F4E9C06091A902709168
:104AF000AA028091AB029091AC02029709F080C0AB
:104B0000CE014F960E94E81D21E030E050E040E0E9
:104B1000BE01615E7F4FCE0185960E943C1E409192
:104B2000E3035091E4036091E5037091E603CE0145
:104B300049960E94BB1D6EEB71E0CE010D960E945E
:104B40002B1E4091E3035091E4036091E5037091C3
:104B5000E603CE0107960E94BB1D8B859C852BE04A
:104B600030E0281B390B50E040E0BE01635F7F4F0F
:104B7000CE0143960E943C1E6DEC71E0CE01019681
:104B80000E942B1EBE016D5E7F4FCE0101960E94DA
:104B90006A1DBE01675E7F4F0E946A1D60ED71E075
:104BA0000E94541D65ED71E00E94541DBE016B5DB5
:104BB0007F4F0E946A1D6BED71E00E94541DBC0185
:104BC000CE018B5A9F4F0E94141ECE0101960E9467
:104BD000A81CCE0143960E94A81CCE0107960E94F5
:104BE000A81CCE010D960E94A81CCE0149960E94D9
:104BF000A81CCE0185960E94A81CCE014F96F5CE2A
:104C0000CE014F960E94E81D21E030E050E040E0E8
:104C1000BE01615E7F4FCE0185960E943C1E409191
:104C2000E3035091E4036091E5037091E603CE0144
:104C300049960E94BB1D6EEB71E0CE010D960E945D
:104C40002B1E4091E3035091E4036091E5037091C2
:104C5000E603CE0107960E94BB1D8B859C852BE049
:104C600030E0281B390B50E040E0BE01635F7F4F0E
:104C7000CE0143960E943C1E6DEC71E0CE01019680
:104C80000E942B1EBE016D5E7F4FCE0101960E94D9
:104C90006A1DBE01675E7F4F0E946A1D60ED71E074
:104CA0000E94541D65ED71E00E94541DBE016B5DB4
:104CB0007F4F0E946A1D65EE71E07FCF6FEE71E05D
:104CC000CE01CD960E94B21C882309F4C2C062EFC7
:104CD00071E0CE01875B9F4F0E94B21C882309F4CC
:104CE00084C082E090E09093AC028093AB020E947B
:104CF0000F140E94C41B0E94881E8091AB029091E9
:104D0000AC0266EF71E0029711F06BEF71E0CE013B
:104D10008B5A9F4F0E94B11D60E072E0CE018D5B07
:104D20009F4F0E94B21C882309F413C163E072E014
:104D3000CE01855A9F4F0E94B11D0230110509F026
:104D40001BC1A1964EAD5FADA1976D966EAD7FADC7
:104D50006D978AE393E00E948D0DCE018F599F4F8E
:104D60000E94A81CCE01855A9F4F0E94A81CCE010C
:104D70008B5A9F4F0E94A81CCE01815B9F4F0E94BF
:104D8000A81CCE01875B9F4F0E94A81CCE018D5BA3
:104D90009F4F0E94A81CCE01CD960E94A81CCE0158
:104DA000C7960E94A81CCE01C1960E94A81CCE01E5
:104DB0008B960E94A81CCA59DF4F0FB6F894DEBF2D
:104DC0000FBECDBFDF91CF911F910F91FF90EF905C
:104DD000DF90CF90BF90AF909F908F907F906F901B
:104DE0005F904F903F902F90089564EF71E0CE0157
:104DF000875B9F4F0E94B21C882309F47ECF82E01C
:104E00000E946F0C7C019093A8028093A70285E01A
:104E10000E946F0C880F991F8E0D9F1D019702979E
:104E200038F41092AC021092AB020E942F1461CFA2
:104E300081E090E09093AC028093AB020E942F142B
:104E400061E084E00E94F60C61E084E00E94C80CFE
:104E500050CF60E072E0CE01CD960E94B21C63E0BC
:104E600072E0811154CF6AE072E0CE01CD960E94CB
:104E7000B21C6DE072E081114ACF62E172E0CE01B6
:104E8000CD960E94B21C65E172E0811140CF6AE1CB
:104E900072E0CE01CD960E94B21C6DE172E08111EC
:104EA00036CF62E272E0CE01CD960E94B21C65E27E
:104EB00072E081112CCF6AE272E0CE01CD960E94A1
:104EC000B21C6DE272E0811122CF65E372E0CE0187
:104ED000CD960E94B21C68E372E0811118CF6DE399
:104EE00072E0CE01CD960E94B21C60E472E08111A6
:104EF0000ECF65E472E0CE01CD960E94B21C6DEE3D
:104F000071E0811104CF68E472E0CE01CD960E9479
:104F1000B21C6BE472E08111FACE60E572E0CE0162
:104F2000CD960E94B21C882319F063E572E0EFCEA3
:104F300068E572E0CE0101960E942B1EBE016F5FF4
:104F40007F4FCE018B5A9F4F0E94C71CCE01019606
:104F50004CCD68E572E0CE0101960E942B1EBE0189
:104F60006F5F7F4FCE01855A9F4F0E94C71CCE01B5
:104F700001960E94A81CE1CE6B964EAD5FAD6B977B
:104F800067966EAD7FAD6797E4CE1F920F920FB616
:104F90000F9211242F933F938F939F93AF93BF93BF
:104FA0008091B2029091B302A091B402B091B50287
:104FB0003091AD0223E0230F2D3758F50196A11D46
:104FC000B11D2093AD028093B2029093B302A093DF
:104FD000B402B093B5028091AE029091AF02A0915D
:104FE000B002B091B1020196A11DB11D8093AE0235
:104FF0009093AF02A093B002B093B102BF91AF9172
:105000009F918F913F912F910F900FBE0F901F9006
:10501000189526E8230F0296A11DB11DD2CF1F922D
:105020000F920FB60F9211242F933F934F935F93DC
:105030006F937F938F939F93AF93BF93EF93FF9360
:105040008AE393E00E944B0EFF91EF91BF91AF91E5
:105050009F918F917F916F915F914F913F912F9190
:105060000F900FBE0F901F9018951F920F920FB6C2
:105070000F9211242F938F939F93EF93FF93E091BF
:105080004A03F0914B038081E0915003F09151036A
:1050900082FD1BC09081809153038F5F8F7320919D
:1050A0005403821741F0E0915303F0E0E65CFC4FBB
:1050B000958F80935303FF91EF919F918F912F9143
:1050C0000F900FBE0F901F9018958081F4CF1F9204
:1050D0000F920FB60F9211242F933F934F935F932C
:1050E0006F937F938F939F93AF93BF93EF93FF93B0
:1050F0008091B900887F803609F44AC0F0F5883283
:1051000009F4A7C018F5803109F49BC0B8F48823CE
:1051100009F4F9C0883009F494C0FF91EF91BF9170
:10512000AF919F918F917F916F915F914F913F913F
:105130002F910F900FBE0F901F901895883109F492
:1051400088C0803251F780930E0314C0803409F474
:105150009DC040F48033B9F38833F9F680930E0391
:1051600085ECB0C0803509F485C0883509F496C057
:10517000883499F60E94EB21D0CF883909F48CC08D
:1051800038F5883729F050F4883611F0803729F641
:1051900083E0809310031092A00257C0883809F46E
:1051A0007BC0803919F0803809F0B7CF8091A00218
:1051B000803208F071C0E091A00281E08E0F8093F0
:1051C000A0028091BB00F0E0E058FD4F80833DC01D
:1051D000803B39F0E0F4803A09F479C0883A09F06C
:1051E0009CCF84E08093100310927F0210927E0285
:1051F000E091A302F091A402099580917E028111B1
:105200000FC081E080937E0210925E0209C0803C54
:1052100009F4A6CF883C09F4A3CF883B09F07DCFE1
:10522000E0917F0281E08E0F80937F02F0E0E25AEE
:10523000FD4F80818093BB0090917F0280917E0220
:1052400029C08091EB028093BB0085EC8093BC0069
:1052500064CF90910D0380910C03981758F5E0915D
:105260000D0381E08E0F80930D03F0E0E451FD4FBC
:105270008081E9CFE0910D0381E08E0F80930D03D3
:105280008091BB00F0E0E451FD4F808390910D03CD
:1052900080910C039817C8F285E8D8CFE0910D03F0
:1052A00081E08E0F80930D038091BB00F0E0E4510C
:1052B000FD4F808380910F0381115CCF81E080934B
:1052C000EA0284EA8093BC001092100326CF85EC9A
:1052D0008093BC00109210038091A002803230F4C1
:1052E000E091A002F0E0E058FD4F10826091A00232
:1052F00070E0E091A102F091A20280E892E00995AD
:105300001092A0020ACF10920E0334CFEAE3F3E02A
:105310001382128288EE93E0A0E0B0E0848395834C
:10532000A683B7832AE431E03183208325EC30E083
:105330003587248724EC30E03787268720EC30E05F
:10534000318B208B21EC30E0338B228B22EC30E050
:10535000358B248B26EC30E0378B268B118E128E0A
:10536000138E148EE7EDF3E013821282848395830B
:10537000A683B7838CE591E091838083E6E7F4E030
:10538000138212821486158617861686108A81E08B
:10539000818B8EE691E091838083E2E7F4E08AE0FE
:1053A000818389E0828310821382EBEEF3E085E053
:1053B000DF011D928A95E9F7158216821782108601
:1053C00080E68093690480E498E7ADE7B1E08093DC
:1053D000580490935904A0935A04B0935B0410921C
:1053E00055041092540410925704109256041092CF
:1053F0006804809114018093E303809115018093E8
:10540000E403809116018093E50380911701809356
:10541000E603809118018093E7038091190180933E
:10542000E80380911A018093E90380911B01809326
:10543000EA030895CF93DF93CDB7DEB72D970FB66C
:10544000F894DEBF0FBECDBF789484B5826084BD72
:1054500084B5816084BD85B5826085BD85B5816078
:1054600085BD80916E00816080936E0010928100F6
:1054700080918100826080938100809181008160B1
:105480008093810080918000816080938000809172
:10549000B10084608093B1008091B00081608093FE
:1054A000B00080917A00846080937A0080917A00C5
:1054B000826080937A0080917A00816080937A0084
:1054C00080917A00806880937A001092C100E09108
:1054D0004A03F0914B0382E08083E0914603F09110
:1054E00047031082E0914803F091490380E18083F3
:1054F00010925203E0914E03F0914F0386E08083B7
:10550000E0914C03F0914D03808180618083E091B4
:105510004C03F0914D03808188608083E0914C03BF
:10552000F0914D03808180688083E0914C03F0917D
:105530004D0380818F7D80838AE090E0A0E0B0E021
:1055400080933E0390933F03A0934003B0934103A5
:1055500090E080E00E9479318F3F09F465C20E949B
:105560004E168091B6029091B702909313018093EA
:1055700012018091B80280930A018091B902809350
:105580000B018091BA0280930C018091BB02809341
:105590000D018091BC0280930E018091BD02809329
:1055A0000F018091BE02809310018091BF02809311
:1055B00011018091C002809314018091C1028093F7
:1055C00015018091C202809316018091C3028093DD
:1055D00017018091C402809318018091C5028093C5
:1055E00019018091C60280931A018091C7028093AD
:1055F0001B011092C9021092C80210921703109258
:1056000039030E944D118AE89DE09093A402809393
:10561000A3028BE89DE09093A2028093A102809167
:10562000690491E0909316038093380381E00E940F
:105630008C1181110EC180E00E94DB1490E0880F74
:10564000892F881F990B0197B1F362E987EB0E94BC
:10565000FB1280E498E7ADE7B1E0809358049093A3
:105660005904A0935A04B0935B0460E070E0CB014E
:105670000E946D1C60E880E10E94FB1260E881E1FD
:105680000E94FB1260E882E10E94FB1260E883E165
:105690000E94FB1260E884E10E94FB1260E885E151
:1056A0000E94FB1260E886E10E94FB1260E887E13D
:1056B0000E94FB126CE080E10E94FB126CE081E131
:1056C0000E94FB126CE082E10E94FB126CE083E11D
:1056D0000E94FB126CE084E10E94FB126CE085E109
:1056E0000E94FB126CE086E10E94FB126CE087E1F5
:1056F0000E94FB1210E000E020E030E24FE550EAAB
:1057000062E170E080E090E00E94CC1801E010E0DF
:1057100020E030E24FE550EA62E170E080E090E0A6
:105720000E94CC181092F5031092F4031092F70324
:105730001092F6031092F9031092F8031092FB03F3
:105740001092FA031092FD031092FC031092FF03D3
:105750001092FE0381E090E0909301048093000496
:10576000909303048093020470E060E090E080E096
:105770000E942B1670E060E081E090E00E942B1602
:1057800070E060E082E090E00E942B1670E060E044
:1057900083E090E00E942B1670E060E084E090E0EF
:1057A0000E942B1670E060E085E090E00E942B16CE
:1057B00061E070E086E090E00E942B1661E070E00E
:1057C00087E090E00E942B1660E082EA0E94FB12C4
:1057D00060E083EA0E94FB1260E084EA0E94FB1210
:1057E00060E281EB0E94FB1260E881EB0E94FB12F9
:1057F00004E014E01A8309830AE6E02E04E0F02EA8
:1058000010E000E0A981BA811C9211961C921197B8
:1058100012961C92129713961C92139714961C9230
:10582000149715961C92159716961C921697179614
:105830001C9217971896BA83A98360E0C8010E944A
:10584000C415F70111927F010F5F1F4F083011053A
:10585000C9F660E17AEA8FEF9FEF0E946D1C10E0BD
:1058600000E020E030E24FE550EA62E170E080E0E5
:1058700090E00E94CC189090E303F091E403FD8740
:10588000A090E503AB868090E6033090E70320907C
:10589000E803B090E903B986C090EA03CA86A4E69B
:1058A000AA2EB12CC12CD12CE12CF12C10E0292DE9
:1058B0003F2F4B85582D632D722D89859A850E9427
:1058C0002A3210E000E00E94961980E10E94DB1469
:1058D000682F636080E10E94FB1260E090E080E04E
:1058E0000E94C41540900601509007016090080185
:1058F0007090090183017201110FEE08FE2C8701DF
:10590000E982FA820B831C83292D3D854B85582D16
:10591000632D722D89859A8552016301E980FE2CE1
:105920000E2D1E2D0E94A73314E6A12EB12CC12CE2
:10593000D12CE12CF12C00E010E00E942A3201E091
:1059400010E00E94961982E10E94DB14682F6C7FA0
:1059500082E10E94FB1260E082E090E00E94C415A8
:105960008091A5029091A602092E000CAA0BBB0BF8
:1059700093018201081B190B2A0B3B0BC901B801CB
:1059800024E630E040E050E00E94823202E010E085
:105990000E94961981E10E94DB14682F6C7F81E1DF
:1059A0000E94FB1260E081E090E00E94C41510921A
:1059B0008A048CE3809389041092B90084E4809374
:1059C000BC008CE08093B80010927A0410927B04A3
:1059D000E2E0F7E085919491082FE4E0F7E014917C
:1059E000E5E0F7E0E491E0937C04E6E0F7E0E491A1
:1059F000E0937D04E7E0F7E0E491E0937E0489839F
:105A00009A838981801B811708F059C0E981FA8146
:105A1000649186E794E00E94F70E29813A812F5F16
:105A20003F4F3A832983EDCF80911201909113016A
:105A30009093B7028093B60280910A018093B802D6
:105A400080910B018093B90280910C018093BA027E
:105A500080910D018093BB0280910E018093BC0266
:105A600080910F018093BD02809110018093BE024E
:105A7000809111018093BF02809114018093C00234
:105A8000809115018093C102809116018093C2021A
:105A9000809117018093C302809118018093C40202
:105AA000809119018093C50280911A018093C602EA
:105AB00080911B018093C7020E9467169ACD86E7EA
:105AC00094E00E940D1162E0809173040E94F60C34
:105AD00062E0809174040E94F60C1092750462E0FA
